{
  "_format": "hh-sol-artifact-1",
  "contractName": "MoonPortal",
  "sourceName": "contracts/MoonPortal.sol",
  "abi": [
    {
      "inputs": [],
      "stateMutability": "payable",
      "type": "constructor"
    },
    {
      "anonymous": false,
      "inputs": [
        {
          "indexed": true,
          "internalType": "address",
          "name": "from",
          "type": "address"
        },
        {
          "indexed": false,
          "internalType": "uint256",
          "name": "timestamp",
          "type": "uint256"
        },
        {
          "indexed": false,
          "internalType": "string",
          "name": "message",
          "type": "string"
        },
        {
          "indexed": false,
          "internalType": "bool",
          "name": "winner",
          "type": "bool"
        }
      ],
      "name": "NewPost",
      "type": "event"
    },
    {
      "inputs": [],
      "name": "getAllPosts",
      "outputs": [
        {
          "components": [
            {
              "internalType": "address",
              "name": "poster",
              "type": "address"
            },
            {
              "internalType": "string",
              "name": "message",
              "type": "string"
            },
            {
              "internalType": "uint256",
              "name": "timestamp",
              "type": "uint256"
            },
            {
              "internalType": "bool",
              "name": "winner",
              "type": "bool"
            }
          ],
          "internalType": "struct MoonPortal.Post[]",
          "name": "",
          "type": "tuple[]"
        }
      ],
      "stateMutability": "view",
      "type": "function"
    },
    {
      "inputs": [],
      "name": "getTotalPosts",
      "outputs": [
        {
          "internalType": "uint256",
          "name": "",
          "type": "uint256"
        }
      ],
      "stateMutability": "view",
      "type": "function"
    },
    {
      "inputs": [
        {
          "internalType": "address",
          "name": "",
          "type": "address"
        }
      ],
      "name": "lastPostedAt",
      "outputs": [
        {
          "internalType": "uint256",
          "name": "",
          "type": "uint256"
        }
      ],
      "stateMutability": "view",
      "type": "function"
    },
    {
      "inputs": [
        {
          "internalType": "string",
          "name": "_message",
          "type": "string"
        }
      ],
      "name": "post",
      "outputs": [],
      "stateMutability": "nonpayable",
      "type": "function"
    }
  ],
  "bytecode": "0x6080604052606444426200001491906200002c565b62000020919062000093565b60018190555062000129565b6000620000398262000089565b9150620000468362000089565b9250827fffffffffffffffffffffffffffffffffffffffffffffffffffffffffffffffff038211156200007e576200007d620000cb565b5b828201905092915050565b6000819050919050565b6000620000a08262000089565b9150620000ad8362000089565b925082620000c057620000bf620000fa565b5b828206905092915050565b7f4e487b7100000000000000000000000000000000000000000000000000000000600052601160045260246000fd5b7f4e487b7100000000000000000000000000000000000000000000000000000000600052601260045260246000fd5b61113080620001396000396000f3fe608060405234801561001057600080fd5b506004361061004c5760003560e01c8063305611001461005157806351493c4f1461006f5780635fe226b41461009f5780638ee93cf3146100bd575b600080fd5b6100596100d9565b6040516100669190610bd6565b60405180910390f35b61008960048036038101906100849190610913565b610245565b6040516100969190610cb8565b60405180910390f35b6100a761025d565b6040516100b49190610cb8565b60405180910390f35b6100d760048036038101906100d2919061093c565b610266565b005b60606002805480602002602001604051908101604052809291908181526020016000905b8282101561023c57838290600052602060002090600402016040518060800160405290816000820160009054906101000a900473ffffffffffffffffffffffffffffffffffffffff1673ffffffffffffffffffffffffffffffffffffffff1673ffffffffffffffffffffffffffffffffffffffff16815260200160018201805461018690610eb8565b80601f01602080910402602001604051908101604052809291908181526020018280546101b290610eb8565b80156101ff5780601f106101d4576101008083540402835291602001916101ff565b820191906000526020600020905b8154815290600101906020018083116101e257829003601f168201915b50505050508152602001600282015481526020016003820160009054906101000a900460ff161515151581525050815260200190600101906100fd565b50505050905090565b60036020528060005260406000206000915090505481565b60008054905090565b42600f600360003373ffffffffffffffffffffffffffffffffffffffff1673ffffffffffffffffffffffffffffffffffffffff168152602001908152602001600020546102b39190610dd8565b106102f3576040517f08c379a00000000000000000000000000000000000000000000000000000000081526004016102ea90610c98565b60405180910390fd5b42600360003373ffffffffffffffffffffffffffffffffffffffff1673ffffffffffffffffffffffffffffffffffffffff1681526020019081526020016000208190555060016000808282546103499190610dd8565b9250508190555061038f6040518060400160405280600e81526020017f25732068617320706f737465642100000000000000000000000000000000000081525033610692565b606460015442446103a09190610dd8565b6103aa9190610dd8565b6103b49190610f1b565b6001819055506103fb6040518060400160405280601681526020017f52616e646f6d20232067656e6572617465643a2025640000000000000000000081525060015461072e565b6000603260015411159050600260405180608001604052803373ffffffffffffffffffffffffffffffffffffffff168152602001848152602001428152602001831515815250908060018154018082558091505060019003906000526020600020906004020160009091909190915060008201518160000160006101000a81548173ffffffffffffffffffffffffffffffffffffffff021916908373ffffffffffffffffffffffffffffffffffffffff16021790555060208201518160010190805190602001906104cd9291906107f3565b506040820151816002015560608201518160030160006101000a81548160ff0219169083151502179055505050801561063c5761053f6040518060400160405280600781526020017f257320776f6e210000000000000000000000000000000000000000000000000081525033610692565b6000655af3107a400090504781111561058d576040517f08c379a000000000000000000000000000000000000000000000000000000000815260040161058490610c58565b60405180910390fd5b60003373ffffffffffffffffffffffffffffffffffffffff16826040516105b390610bc1565b60006040518083038185875af1925050503d80600081146105f0576040519150601f19603f3d011682016040523d82523d6000602084013e6105f5565b606091505b5050905080610639576040517f08c379a000000000000000000000000000000000000000000000000000000000815260040161063090610c78565b60405180910390fd5b50505b3373ffffffffffffffffffffffffffffffffffffffff167f30b90dd76a197e3d248468e8ec183814d6debeaee0bce3105fd0917e80bc513a42848460405161068693929190610cd3565b60405180910390a25050565b61072a82826040516024016106a8929190610bf8565b6040516020818303038152906040527f319af333000000000000000000000000000000000000000000000000000000007bffffffffffffffffffffffffffffffffffffffffffffffffffffffff19166020820180517bffffffffffffffffffffffffffffffffffffffffffffffffffffffff83818316178352505050506107ca565b5050565b6107c68282604051602401610744929190610c28565b6040516020818303038152906040527f9710a9d0000000000000000000000000000000000000000000000000000000007bffffffffffffffffffffffffffffffffffffffffffffffffffffffff19166020820180517bffffffffffffffffffffffffffffffffffffffffffffffffffffffff83818316178352505050506107ca565b5050565b60008151905060006a636f6e736f6c652e6c6f679050602083016000808483855afa5050505050565b8280546107ff90610eb8565b90600052602060002090601f0160209004810192826108215760008555610868565b82601f1061083a57805160ff1916838001178555610868565b82800160010185558215610868579182015b8281111561086757825182559160200191906001019061084c565b5b5090506108759190610879565b5090565b5b8082111561089257600081600090555060010161087a565b5090565b60006108a96108a484610d36565b610d11565b9050828152602081018484840111156108c157600080fd5b6108cc848285610e76565b509392505050565b6000813590506108e3816110e3565b92915050565b600082601f8301126108fa57600080fd5b813561090a848260208601610896565b91505092915050565b60006020828403121561092557600080fd5b6000610933848285016108d4565b91505092915050565b60006020828403121561094e57600080fd5b600082013567ffffffffffffffff81111561096857600080fd5b610974848285016108e9565b91505092915050565b60006109898383610b40565b905092915050565b61099a81610e2e565b82525050565b6109a981610e2e565b82525050565b60006109ba82610d77565b6109c48185610d9a565b9350836020820285016109d685610d67565b8060005b85811015610a1257848403895281516109f3858261097d565b94506109fe83610d8d565b925060208a019950506001810190506109da565b50829750879550505050505092915050565b610a2d81610e40565b82525050565b610a3c81610e40565b82525050565b6000610a4d82610d82565b610a578185610db6565b9350610a67818560208601610e85565b610a7081611008565b840191505092915050565b6000610a8682610d82565b610a908185610dc7565b9350610aa0818560208601610e85565b610aa981611008565b840191505092915050565b6000610ac1603483610dc7565b9150610acc82611019565b604082019050919050565b6000610ae4602783610dc7565b9150610aef82611068565b604082019050919050565b6000610b07600083610dab565b9150610b12826110b7565b600082019050919050565b6000610b2a600883610dc7565b9150610b35826110ba565b602082019050919050565b6000608083016000830151610b586000860182610991565b5060208301518482036020860152610b708282610a42565b9150506040830151610b856040860182610ba3565b506060830151610b986060860182610a24565b508091505092915050565b610bac81610e6c565b82525050565b610bbb81610e6c565b82525050565b6000610bcc82610afa565b9150819050919050565b60006020820190508181036000830152610bf081846109af565b905092915050565b60006040820190508181036000830152610c128185610a7b565b9050610c2160208301846109a0565b9392505050565b60006040820190508181036000830152610c428185610a7b565b9050610c516020830184610bb2565b9392505050565b60006020820190508181036000830152610c7181610ab4565b9050919050565b60006020820190508181036000830152610c9181610ad7565b9050919050565b60006020820190508181036000830152610cb181610b1d565b9050919050565b6000602082019050610ccd6000830184610bb2565b92915050565b6000606082019050610ce86000830186610bb2565b8181036020830152610cfa8185610a7b565b9050610d096040830184610a33565b949350505050565b6000610d1b610d2c565b9050610d278282610eea565b919050565b6000604051905090565b600067ffffffffffffffff821115610d5157610d50610fd9565b5b610d5a82611008565b9050602081019050919050565b6000819050602082019050919050565b600081519050919050565b600081519050919050565b6000602082019050919050565b600082825260208201905092915050565b600081905092915050565b600082825260208201905092915050565b600082825260208201905092915050565b6000610de382610e6c565b9150610dee83610e6c565b9250827fffffffffffffffffffffffffffffffffffffffffffffffffffffffffffffffff03821115610e2357610e22610f4c565b5b828201905092915050565b6000610e3982610e4c565b9050919050565b60008115159050919050565b600073ffffffffffffffffffffffffffffffffffffffff82169050919050565b6000819050919050565b82818337600083830152505050565b60005b83811015610ea3578082015181840152602081019050610e88565b83811115610eb2576000848401525b50505050565b60006002820490506001821680610ed057607f821691505b60208210811415610ee457610ee3610faa565b5b50919050565b610ef382611008565b810181811067ffffffffffffffff82111715610f1257610f11610fd9565b5b80604052505050565b6000610f2682610e6c565b9150610f3183610e6c565b925082610f4157610f40610f7b565b5b828206905092915050565b7f4e487b7100000000000000000000000000000000000000000000000000000000600052601160045260246000fd5b7f4e487b7100000000000000000000000000000000000000000000000000000000600052601260045260246000fd5b7f4e487b7100000000000000000000000000000000000000000000000000000000600052602260045260246000fd5b7f4e487b7100000000000000000000000000000000000000000000000000000000600052604160045260246000fd5b6000601f19601f8301169050919050565b7f547279696e6720746f207769746864726177206d6f7265206d6f6e657920746860008201527f616e2074686520636f6e7472616374206861732e000000000000000000000000602082015250565b7f4661696c656420746f207769746864726177206d6f6e65792066726f6d20636f60008201527f6e74726163742e00000000000000000000000000000000000000000000000000602082015250565b50565b7f576169742031356d000000000000000000000000000000000000000000000000600082015250565b6110ec81610e2e565b81146110f757600080fd5b5056fea26469706673582212206e8b4d0890d8af3292039782dd0459359c0f14b412ba468ba00d5886e9dcd41864736f6c63430008040033",
  "linkReferences": {},
  "deployedLinkReferences": {}
}